{
  "transactions": [
    {
      "hash": "0x7a2fe3649ad3cef8659010467e84bde3d6c436857a1545c6f8d93684c404c39b",
      "transactionType": "CALL",
      "contractName": null,
      "contractAddress": "0xf52369b58d83df32eef4ebca0f43ea1f086617ad",
      "function": "mintNFT(string)",
      "arguments": [
        "ipfs://bafybeig37ioir76s7mg5oobetncojcm3c3hxasyd4rvid4jqhy4gkaheg4/?filename=0-PUG.json"
      ],
      "transaction": {
        "from": "0x58cf306c86ba5b5e464aa4302eb805a3a83e574c",
        "to": "0xf52369b58d83df32eef4ebca0f43ea1f086617ad",
        "gas": "0x3d61a",
        "value": "0x0",
        "input": "0xfb37e88300000000000000000000000000000000000000000000000000000000000000200000000000000000000000000000000000000000000000000000000000000057697066733a2f2f62616679626569673337696f6972373673376d67356f6f6265746e636f6a636d3363336878617379643472766964346a71687934676b61686567342f3f66696c656e616d653d302d5055472e6a736f6e000000000000000000",
        "nonce": "0xd",
        "chainId": "0xaa36a7"
      },
      "additionalContracts": [],
      "isFixedGasLimit": false
    }
  ],
  "receipts": [
    {
      "status": "0x1",
      "cumulativeGasUsed": "0x1cda347",
      "logs": [
        {
          "address": "0xf52369b58d83df32eef4ebca0f43ea1f086617ad",
          "topics": [
            "0xddf252ad1be2c89b69c2b068fc378daa952ba7f163c4a11628f55a4df523b3ef",
            "0x0000000000000000000000000000000000000000000000000000000000000000",
            "0x00000000000000000000000058cf306c86ba5b5e464aa4302eb805a3a83e574c",
            "0x0000000000000000000000000000000000000000000000000000000000000000"
          ],
          "data": "0x",
          "blockHash": "0x793b676e6d4c005b4de5497eed077f2d0a72f3f16175022743a2ff961eda6a05",
          "blockNumber": "0x7459d8",
          "transactionHash": "0x7a2fe3649ad3cef8659010467e84bde3d6c436857a1545c6f8d93684c404c39b",
          "transactionIndex": "0x122",
          "logIndex": "0x230",
          "removed": false
        }
      ],
      "logsBloom": "0x00000000000000000000000000000000000000000000000000000000000000000000000000000000000000000000000100000000000000000000000000000000000000000000000000000008000000000000000000000000000000000000000000000000020000000004000000000800000000000000100000000010000000000000000000000000000000000000000000000000000000000000000000000000000000000000000000000000000000000000000000000000000000800000200000000002000000000000000000000000000000000000000000000000000020000000000000000000000000000800000000000000000000000000000000000000",
      "type": "0x2",
      "transactionHash": "0x7a2fe3649ad3cef8659010467e84bde3d6c436857a1545c6f8d93684c404c39b",
      "transactionIndex": "0x122",
      "blockHash": "0x793b676e6d4c005b4de5497eed077f2d0a72f3f16175022743a2ff961eda6a05",
      "blockNumber": "0x7459d8",
      "gasUsed": "0x2c707",
      "effectiveGasPrice": "0xec539d3f",
      "from": "0x58cf306c86ba5b5e464aa4302eb805a3a83e574c",
      "to": "0xf52369b58d83df32eef4ebca0f43ea1f086617ad",
      "contractAddress": null
    }
  ],
  "libraries": [],
  "pending": [],
  "returns": {},
  "timestamp": 1738511065,
  "chain": 11155111,
  "commit": "fecdc8d"
}